:1000000001308A00942900000A108A100A11820720
:100010003E345134493445343E34003400340034E5
:10002000003442347F34403400340034003400342F
:10003000623451345134493446340034003400348D
:1000400022344134493449343634003400340034E5
:100050001834143412347F34103400340034003433
:1000600027344534453445343934003400340034C1
:100070003E34493449344934323400340034003495
:10008000033401347934053403340034003400344B
:100090003634493449344934363400340034003479
:1000A00026344934493449343E3400340034003471
:1000B0007C341234113412347C3400340034003473
:1000C0007F34493449344934363400340034003400
:1000D0003E3441344134413422340034003400345D
:1000E0007F344134413422341C3400340034003431
:1000F0007F344934493449344134003400340034C5
:100100007F340934093409340134003400340034B4
:100110003E344134493449347A34003400340034B4
:100120007F340834083408347F3400340034003419
:1001300041347F344134003400340034003400341E
:100140003034403440343F34003400340034003420
:100150007F34083414342234413400340034003401
:100160000C341E343F347E347E343F341E340C3421
:100170009412A012200883168700831220162008EC
:10018000831687008312A011200883168700213070
:10019000831294000030831694000510831205101A
:1001A0001308093093008316140C031CD4288312FF
:1001B000130893018316140C031CDB28051083120B
:1001C0000514831605108312051013080A309300D6
:1001D0008316140C031CE9288312130808309300BB
:1001E0008316140C031CF1280510831205148316C2
:1001F00005108312051013080B3093008316140C9E
:10020000031CFF2883121308073093008316140C75
:10021000031C072905108312051483160510831289
:10022000051013080C3093008316140C031C1529B9
:1002300083121308013093008316140C031C1D292C
:100240000510831205148316051083120510130878
:100250000F3093008316140C031C2B2983121308F0
:1002600093018316140C031C322905108312051404
:100270008A110A12A329A3012308073C031C63293E
:10028000831605108312051001302307A4002408EB
:1002900093008316140C031C4A298312220DF700C5
:1002A000F70DF70DF830F705770823070420A400B1
:1002B000240893008316140C031C5B290510831279
:1002C0000514A30A3C298A110A12A72923308400A5
:1002D0008313000803197A290130F800F701F70B9E
:1002E0006F29F80B6E294A30F700F70B752978292A
:1002F000800B6C298A110A12AC292508F801240206
:10030000031885292408F7009129F7010830A60071
:10031000A40DF70D250877020318F700F80DA60BBA
:1003200088298A110A12B52903081F398300FF3072
:10033000A00083161F149F141F159F1107309C00E7
:1003400083138312B828A1012108A2003B2904309D
:10035000A200FA30A3006629A20BA92901302107C7
:10036000A300A4001630A5007D297708A100A429C8
:02037000630028
:02400E00713F00
:00000001FF
;PIC16F877A
;CRC=0E01  CREATED="30-abr.-24 01:40"
